:100000000C9456000C9473000C9473000C947300C1
:100010000C9473000C9473000C9473000C94730094
:100020000C9473000C9473000C9473000C94730084
:100030000C9473000C9473000C9473000C94730074
:100040000C9473000C9473000C9473000C94730064
:100050000C9473000C9473000C9473000C94730054
:100060000C9473000C9473000C9473000C94730044
:100070000C9473000C9473000C9473000C94730034
:100080000C9473000C9473000C9473000C94730024
:100090000C9473000C9473000C9473000C94730014
:1000A0000C9473000C9473000C94730011241FBE05
:1000B000CFEFDAE0DEBFCDBF11E0A0E0B1E0E2EAD1
:1000C000FAE002C005900D92A435B107D9F721E0FE
:1000D000A4E5B1E001C01D92A835B207E1F70E9486
:1000E00075000C944F050C9400004F925F926F9234
:1000F0007F928F929F92AF92BF92CF92DF92EF92B8
:10010000FF920F931F93CF93DF93CDB7DEB729975D
:100110000FB6F894DEBF0FBECDBF8CE00E942B025D
:100120000E946C020E9486011F929CE3D92EDF92EE
:1001300000E011E01F930F93CE0101967C019F9385
:100140008F930E9477021F92DF921F930F933E01BD
:1001500094E0690E711C7F926F920E94770261E0B9
:1001600080E00E94010283E091E00E941F0261E0B2
:1001700086E00E940102C7010E941F0287E091E011
:100180000E941F020FB6F894DEBF0FBECDBF8824B9
:100190008394912C68012E0197E0490E511C9F9287
:1001A0008F92DF92CF92FF92EF920E9477020E948D
:1001B00008028AE091E00E941F02C7010E941F020C
:1001C0000F900F900F900F900F900F900CE310E096
:1001D000015011091F930F93DF92CF927F926F927C
:1001E0000E9477020E9408028AE091E00E941F02AA
:1001F000C7010E941F020F900F900F900F900F9059
:100200000F900A3011051CF489E091E002C087E0EC
:1002100091E00E941F02C3010E941F0287E091E04B
:100220000E941F028CE3A82EB12C21E0A21AB10873
:10023000BF92AF92DF92CF925F924F920E9477026D
:100240000E940802C7010E941F020F900F900F909A
:100250000F900F900F900A3011051CF489E091E087
:1002600002C087E091E00E941F02C3010E941F02AA
:100270008AE0A816B1041CF489E091E002C087E08E
:1002800091E00E941F02C2010E941F029FEF23ED16
:1002900080E3915020408040E1F700C00000A114AD
:1002A000B10419F60115110509F092CFC4010197A7
:1002B000812C912C019609F072CF80E090E0299674
:1002C0000FB6F894DEBF0FBECDBFDF91CF911F9167
:1002D0000F91FF90EF90DF90CF90BF90AF909F90E5
:1002E0008F907F906F905F904F900895CF93DF93A2
:1002F0002898C8E5D1E00E9471028A9381E0C43554
:10030000D807C9F7289ADF91CF9108950C94760108
:100310008E9A85E08A95F1F700008E980895CF9324
:10032000DF931F92CDB7DEB7662311F0469A01C066
:1003300046984798809A819A849A859A8D988C9845
:100340008998889887FD8D9A86FD8C9A85FD899A73
:1003500084FD889A89830E9488018D988C98899859
:100360008898898183FD8D9A82FD8C9A81FD899A76
:1003700080FD889A0E948801889A899A8C9A8D9A21
:100380000F90DF91CF9108954698479A8098819871
:10039000849885988E9A85E08A95F1F70000789B7D
:1003A00002C080E101C080E0799980627C9980641C
:1003B0007D9980688E9895E09A95F1F700008E9A65
:1003C00095E09A95F1F700007899816079998260BB
:1003D0007C9984607D9988608E9808950E94C401FC
:1003E00087FDFCCF85E18A95F1F700000C94C401EC
:1003F000CF93C82F0E94EE0160E08C2FCF910C9418
:100400008F01611102C0805801C080540C94F80122
:1004100081E00C94F801CF93C82F0E94EE01CA30FE
:1004200049F4803410F080E001C080E48058CF911E
:100430000C94F80161E08C2FCF910C948F01CF9335
:10044000DF93EC018991882319F00E940B02FACF07
:10045000DF91CF910895CF93C82F3E9A3F9A869A05
:10046000809A819A849A859A8FEF99EF0197F1F794
:1004700000C00000899A889A0E9488018FE19EE45A
:100480000197F1F700C000000E9488018FEF90E013
:100490000197F1F700C000000E9488018FEF90E003
:1004A0000197F1F700C0000088980E9488018FEF43
:1004B00090E00197F1F700C0000088E20E94F80187
:1004C00088E00E94F8010E94080286E00E94F8017C
:1004D0008C2FCF910C94F80187E084B987E58CBD0F
:1004E00008951EBC0DB407FEFDCF8EB50895AEE095
:1004F000B0E0EDE7F2E00C9426050D891E8986E058
:100500008C831A8309838FEF9FE79E838D83AE01CF
:10051000475E5F4F6F89788DCE0101960E949A02E7
:100520002F813885F801E20FF31F10822E96E4E048
:100530000C944205ACE0B0E0E0EAF2E00C9418055F
:100540007C016B018A01FC0117821682838181FF85
:10055000BDC1CE0101964C01F7019381F60193FDD7
:10056000859193FF81916F01882309F4ABC1853296
:1005700039F493FD859193FF81916F01853229F4C0
:10058000B70190E00E948204E7CF512C312C20E08B
:100590002032A0F48B3269F030F4803259F083328B
:1005A00069F420612CC08D3239F0803339F4216038
:1005B00026C02260246023C0286021C027FD27C0F8
:1005C00030ED380F3A3078F426FF06C0FAE05F9E2F
:1005D000300D1124532E13C08AE0389E300D1124A3
:1005E000332E20620CC08E3221F426FD6BC12064B4
:1005F00006C08C3611F4206802C0883641F4F6013A
:1006000093FD859193FF81916F018111C1CF982F47
:100610009F7D9554933028F40C5F1F4FFFE3F983BF
:100620000DC0833631F0833771F0833509F05BC03C
:1006300022C0F801808189830E5F1F4F44244394B8
:10064000512C540115C03801F2E06F0E711CF801F5
:10065000A080B18026FF03C0652D70E002C06FEF5F
:100660007FEFC5012C870E9477042C0183012C8524
:100670002F77222E17C03801F2E06F0E711CF8019F
:10068000A080B18026FF03C0652D70E002C06FEF2F
:100690007FEFC5012C870E946C042C012C852068FB
:1006A000222E830123FC1BC0832D90E0481659069F
:1006B000B0F4B70180E290E00E9482043A94F4CF53
:1006C000F50127FC859127FE81915F01B70190E03C
:1006D0000E94820431103A94F1E04F1A51084114FB
:1006E000510471F7E5C0843611F0893639F5F80107
:1006F00027FF07C060817181828193810C5F1F4F4A
:1007000008C060817181072E000C880B990B0E5F69
:100710001F4F2F76722E97FF09C090958095709588
:1007200061957F4F8F4F9F4F2068722E2AE030E0F7
:10073000A4010E94BA04A82EA81844C0853729F441
:100740002F7EB22E2AE030E025C0F22FF97FBF2E97
:100750008F36C1F018F4883579F0B4C0803719F0BD
:10076000883721F0AFC02F2F2061B22EB4FE0DC00C
:100770008B2D8460B82E09C024FF0AC09F2F96607D
:10078000B92E06C028E030E005C020E130E002C00C
:1007900020E132E0F801B7FE07C0608171818281FB
:1007A00093810C5F1F4F06C06081718180E090E0F3
:1007B0000E5F1F4FA4010E94BA04A82EA818FB2D9B
:1007C000FF777F2E76FE0BC0372D3E7FA51450F4A9
:1007D00074FE0AC072FC08C0372D3E7E05C0BA2CDC
:1007E000372D03C0BA2C01C0B52C34FF0DC0FE015B
:1007F000EA0DF11D8081803311F4397E09C032FF8A
:1008000006C0B394B39404C0832F867809F0B394E0
:1008100033FD13C030FF06C05A2CB31418F4530C28
:100820005B18B32CB31468F4B70180E290E03C8706
:100830000E948204B3943C85F5CFB31410F43B18A6
:1008400001C0312C34FF12C0B70180E390E03C8737
:100850000E9482043C8532FF17C031FD03C088E747
:1008600090E002C088E590E0B7010CC0832F867845
:1008700059F031FF02C08BE201C080E237FD8DE20A
:10088000B70190E00E948204A51438F4B70180E318
:1008900090E00E9482045A94F7CFAA94F401EA0DE2
:1008A000F11D8081B70190E00E948204A110F5CF74
:1008B000332009F451CEB70180E290E00E94820417
:1008C0003A94F6CFF7018681978102C08FEF9FEFB0
:1008D0002C96E2E10C943405FC01059061507040C7
:1008E0000110D8F7809590958E0F9F1F0895FC01F9
:1008F0006150704001900110D8F7809590958E0F4F
:100900009F1F08950F931F93CF93DF93FB012381C4
:1009100021FD03C08FEF9FEF28C022FF16C0468144
:100920005781248135814217530744F4A081B18156
:100930009D012F5F3F4F318320838C932681378128
:100940002F5F3F4F3783268310C0EB01092F182FED
:100950000084F185E02D0995892BE1F68E819F8138
:1009600001969F838E83812F902FDF91CF911F91CE
:100970000F910895FA01AA27283051F1203181F111
:10098000E8946F936E7F6E5F7F4F8F4F9F4FAF4F97
:10099000B1E03ED0B4E03CD0670F781F891F9A1FAA
:1009A000A11D680F791F8A1F911DA11D6A0F711D5E
:1009B000811D911DA11D20D009F468943F912AE06A
:1009C000269F11243019305D3193DEF6CF01089552
:1009D000462F4770405D4193B3E00FD0C9F7F6CF83
:1009E000462F4F70405D4A3318F0495D31FD40524B
:1009F000419302D0A9F7EACFB4E0A69597958795E1
:100A000077956795BA95C9F70097610571050895BF
:100A10009B01AC010A2E069457954795379527956B
:100A2000BA95C9F7620F731F841F951FA01D089503
:100A30002F923F924F925F926F927F928F929F92EE
:100A4000AF92BF92CF92DF92EF92FF920F931F93DC
:100A5000CF93DF93CDB7DEB7CA1BDB0B0FB6F8948D
:100A6000DEBF0FBECDBF09942A88398848885F84CD
:100A70006E847D848C849B84AA84B984C884DF803E
:100A8000EE80FD800C811B81AA81B981CE0FD11D22
:100A90000FB6F894DEBF0FBECDBFED010895F894F8
:020AA000FFCF86
:100AA20025640054696D653A003A3000413A2045A8
:100AB2006E7465722054656D7000423A20456E7402
:100AC20065722054696D6500456E746572205465C7
:100AD2006D703A00233A20446F6E6500456E74656E
:100AE2007220486F7572733A00456E746572204DBC
:040AF200696E3A00EF
:00000001FF
